{
  "_format": "hh-sol-artifact-1",
  "contractName": "Nft",
  "sourceName": "contracts/NFT.sol",
  "abi": [
    {
      "inputs": [
        {
          "internalType": "string",
          "name": "_name",
          "type": "string"
        },
        {
          "internalType": "string",
          "name": "_symbol",
          "type": "string"
        }
      ],
      "stateMutability": "nonpayable",
      "type": "constructor"
    },
    {
      "anonymous": false,
      "inputs": [
        {
          "indexed": true,
          "internalType": "address",
          "name": "_owner",
          "type": "address"
        },
        {
          "indexed": true,
          "internalType": "address",
          "name": "_approved",
          "type": "address"
        },
        {
          "indexed": true,
          "internalType": "uint256",
          "name": "_tokenId",
          "type": "uint256"
        }
      ],
      "name": "Approval",
      "type": "event"
    },
    {
      "anonymous": false,
      "inputs": [
        {
          "indexed": true,
          "internalType": "address",
          "name": "_owner",
          "type": "address"
        },
        {
          "indexed": true,
          "internalType": "address",
          "name": "_operator",
          "type": "address"
        },
        {
          "indexed": false,
          "internalType": "bool",
          "name": "_approved",
          "type": "bool"
        }
      ],
      "name": "ApprovalForAll",
      "type": "event"
    },
    {
      "anonymous": false,
      "inputs": [
        {
          "indexed": true,
          "internalType": "address",
          "name": "_from",
          "type": "address"
        },
        {
          "indexed": true,
          "internalType": "address",
          "name": "_to",
          "type": "address"
        },
        {
          "indexed": true,
          "internalType": "uint256",
          "name": "_tokenId",
          "type": "uint256"
        }
      ],
      "name": "Transfer",
      "type": "event"
    },
    {
      "inputs": [
        {
          "internalType": "address",
          "name": "approved",
          "type": "address"
        },
        {
          "internalType": "uint256",
          "name": "tokenId",
          "type": "uint256"
        }
      ],
      "name": "approve",
      "outputs": [],
      "stateMutability": "payable",
      "type": "function"
    },
    {
      "inputs": [
        {
          "internalType": "address",
          "name": "owner",
          "type": "address"
        }
      ],
      "name": "balanceOf",
      "outputs": [
        {
          "internalType": "uint256",
          "name": "",
          "type": "uint256"
        }
      ],
      "stateMutability": "view",
      "type": "function"
    },
    {
      "inputs": [
        {
          "internalType": "uint256",
          "name": "tokenId",
          "type": "uint256"
        }
      ],
      "name": "getApproved",
      "outputs": [
        {
          "internalType": "address",
          "name": "",
          "type": "address"
        }
      ],
      "stateMutability": "view",
      "type": "function"
    },
    {
      "inputs": [
        {
          "internalType": "address",
          "name": "owner",
          "type": "address"
        },
        {
          "internalType": "address",
          "name": "operator",
          "type": "address"
        }
      ],
      "name": "isApprovedForAll",
      "outputs": [
        {
          "internalType": "bool",
          "name": "",
          "type": "bool"
        }
      ],
      "stateMutability": "view",
      "type": "function"
    },
    {
      "inputs": [
        {
          "internalType": "string",
          "name": "_tokenURI",
          "type": "string"
        }
      ],
      "name": "mint",
      "outputs": [],
      "stateMutability": "nonpayable",
      "type": "function"
    },
    {
      "inputs": [],
      "name": "name",
      "outputs": [
        {
          "internalType": "string",
          "name": "",
          "type": "string"
        }
      ],
      "stateMutability": "view",
      "type": "function"
    },
    {
      "inputs": [
        {
          "internalType": "uint256",
          "name": "tokenId",
          "type": "uint256"
        }
      ],
      "name": "ownerOf",
      "outputs": [
        {
          "internalType": "address",
          "name": "",
          "type": "address"
        }
      ],
      "stateMutability": "view",
      "type": "function"
    },
    {
      "inputs": [
        {
          "internalType": "address",
          "name": "from",
          "type": "address"
        },
        {
          "internalType": "address",
          "name": "to",
          "type": "address"
        },
        {
          "internalType": "uint256",
          "name": "tokenId",
          "type": "uint256"
        }
      ],
      "name": "safeTransferFrom",
      "outputs": [],
      "stateMutability": "payable",
      "type": "function"
    },
    {
      "inputs": [
        {
          "internalType": "address",
          "name": "from",
          "type": "address"
        },
        {
          "internalType": "address",
          "name": "to",
          "type": "address"
        },
        {
          "internalType": "uint256",
          "name": "tokenId",
          "type": "uint256"
        },
        {
          "internalType": "bytes",
          "name": "_data",
          "type": "bytes"
        }
      ],
      "name": "safeTransferFrom",
      "outputs": [],
      "stateMutability": "payable",
      "type": "function"
    },
    {
      "inputs": [
        {
          "internalType": "address",
          "name": "operator",
          "type": "address"
        },
        {
          "internalType": "bool",
          "name": "approved",
          "type": "bool"
        }
      ],
      "name": "setApprovalForAll",
      "outputs": [],
      "stateMutability": "nonpayable",
      "type": "function"
    },
    {
      "inputs": [
        {
          "internalType": "bytes4",
          "name": "interfaceID",
          "type": "bytes4"
        }
      ],
      "name": "supportInterface",
      "outputs": [
        {
          "internalType": "bool",
          "name": "",
          "type": "bool"
        }
      ],
      "stateMutability": "pure",
      "type": "function"
    },
    {
      "inputs": [],
      "name": "symbol",
      "outputs": [
        {
          "internalType": "string",
          "name": "",
          "type": "string"
        }
      ],
      "stateMutability": "view",
      "type": "function"
    },
    {
      "inputs": [],
      "name": "tokenCount",
      "outputs": [
        {
          "internalType": "uint256",
          "name": "",
          "type": "uint256"
        }
      ],
      "stateMutability": "view",
      "type": "function"
    },
    {
      "inputs": [
        {
          "internalType": "uint256",
          "name": "tokenID",
          "type": "uint256"
        }
      ],
      "name": "tokenURI",
      "outputs": [
        {
          "internalType": "string",
          "name": "",
          "type": "string"
        }
      ],
      "stateMutability": "view",
      "type": "function"
    },
    {
      "inputs": [
        {
          "internalType": "address",
          "name": "from",
          "type": "address"
        },
        {
          "internalType": "address",
          "name": "to",
          "type": "address"
        },
        {
          "internalType": "uint256",
          "name": "tokenId",
          "type": "uint256"
        }
      ],
      "name": "transferFrom",
      "outputs": [],
      "stateMutability": "payable",
      "type": "function"
    }
  ],
  "bytecode": "0x60806040523480156200001157600080fd5b506040516200206238038062002062833981810160405281019062000037919062000193565b81600490805190602001906200004f92919062000071565b5080600490805190602001906200006892919062000071565b50505062000376565b8280546200007f906200029b565b90600052602060002090601f016020900481019282620000a35760008555620000ef565b82601f10620000be57805160ff1916838001178555620000ef565b82800160010185558215620000ef579182015b82811115620000ee578251825591602001919060010190620000d1565b5b509050620000fe919062000102565b5090565b5b808211156200011d57600081600090555060010162000103565b5090565b60006200013862000132846200022f565b62000206565b9050828152602081018484840111156200015157600080fd5b6200015e84828562000265565b509392505050565b600082601f8301126200017857600080fd5b81516200018a84826020860162000121565b91505092915050565b60008060408385031215620001a757600080fd5b600083015167ffffffffffffffff811115620001c257600080fd5b620001d08582860162000166565b925050602083015167ffffffffffffffff811115620001ee57600080fd5b620001fc8582860162000166565b9150509250929050565b60006200021262000225565b9050620002208282620002d1565b919050565b6000604051905090565b600067ffffffffffffffff8211156200024d576200024c62000336565b5b620002588262000365565b9050602081019050919050565b60005b838110156200028557808201518184015260208101905062000268565b8381111562000295576000848401525b50505050565b60006002820490506001821680620002b457607f821691505b60208210811415620002cb57620002ca62000307565b5b50919050565b620002dc8262000365565b810181811067ffffffffffffffff82111715620002fe57620002fd62000336565b5b80604052505050565b7f4e487b7100000000000000000000000000000000000000000000000000000000600052602260045260246000fd5b7f4e487b7100000000000000000000000000000000000000000000000000000000600052604160045260246000fd5b6000601f19601f8301169050919050565b611cdc80620003866000396000f3fe6080604052600436106100e85760003560e01c806375e79be61161008a578063b88d4fde11610059578063b88d4fde146102df578063c87b56dd146102fb578063d85d3d2714610338578063e985e9c514610361576100e8565b806375e79be61461022357806395d89b41146102605780639f181b5e1461028b578063a22cb465146102b6576100e8565b806323b872dd116100c657806323b872dd1461017157806342842e0e1461018d5780636352211e146101a957806370a08231146101e6576100e8565b806306fdde03146100ed578063081812fc14610118578063095ea7b314610155575b600080fd5b3480156100f957600080fd5b5061010261039e565b60405161010f91906116bb565b60405180910390f35b34801561012457600080fd5b5061013f600480360381019061013a91906114de565b61042c565b60405161014c9190611685565b60405180910390f35b61016f600480360381019061016a9190611438565b61050b565b005b61018b60048036038101906101869190611332565b610649565b005b6101a760048036038101906101a29190611332565b6109fe565b005b3480156101b557600080fd5b506101d060048036038101906101cb91906114de565b610a1e565b6040516101dd9190611685565b60405180910390f35b3480156101f257600080fd5b5061020d600480360381019061020891906112cd565b610ad0565b60405161021a91906117dd565b60405180910390f35b34801561022f57600080fd5b5061024a60048036038101906102459190611474565b610b87565b60405161025791906116a0565b60405180910390f35b34801561026c57600080fd5b50610275610be9565b60405161028291906116bb565b60405180910390f35b34801561029757600080fd5b506102a0610c77565b6040516102ad91906117dd565b60405180910390f35b3480156102c257600080fd5b506102dd60048036038101906102d891906113fc565b610c7d565b005b6102f960048036038101906102f49190611381565b610d7a565b005b34801561030757600080fd5b50610322600480360381019061031d91906114de565b610dd2565b60405161032f91906116bb565b60405180910390f35b34801561034457600080fd5b5061035f600480360381019061035a919061149d565b610f1a565b005b34801561036d57600080fd5b50610388600480360381019061038391906112f6565b611069565b60405161039591906116a0565b60405180910390f35b600480546103ab906119db565b80601f01602080910402602001604051908101604052809291908181526020018280546103d7906119db565b80156104245780601f106103f957610100808354040283529160200191610424565b820191906000526020600020905b81548152906001019060200180831161040757829003601f168201915b505050505081565b60008073ffffffffffffffffffffffffffffffffffffffff166001600084815260200190815260200160002060009054906101000a900473ffffffffffffffffffffffffffffffffffffffff1673ffffffffffffffffffffffffffffffffffffffff1614156104d0576040517f08c379a00000000000000000000000000000000000000000000000000000000081526004016104c7906116fd565b60405180910390fd5b6003600083815260200190815260200160002060009054906101000a900473ffffffffffffffffffffffffffffffffffffffff169050919050565b600061051682610a1e565b90508073ffffffffffffffffffffffffffffffffffffffff163373ffffffffffffffffffffffffffffffffffffffff16148061055857506105578133611069565b5b610597576040517f08c379a000000000000000000000000000000000000000000000000000000000815260040161058e9061171d565b60405180910390fd5b826003600084815260200190815260200160002060006101000a81548173ffffffffffffffffffffffffffffffffffffffff021916908373ffffffffffffffffffffffffffffffffffffffff160217905550818373ffffffffffffffffffffffffffffffffffffffff168273ffffffffffffffffffffffffffffffffffffffff167f8c5be1e5ebec7d5bd14f71427d1e84f3dd0314c0f7b2291e5b200ac8c7c3b92560405160405180910390a4505050565b600061065482610a1e565b90508073ffffffffffffffffffffffffffffffffffffffff163373ffffffffffffffffffffffffffffffffffffffff16148061069657506106958133611069565b5b806106d457503373ffffffffffffffffffffffffffffffffffffffff166106bc8361042c565b73ffffffffffffffffffffffffffffffffffffffff16145b610713576040517f08c379a000000000000000000000000000000000000000000000000000000000815260040161070a9061171d565b60405180910390fd5b3373ffffffffffffffffffffffffffffffffffffffff168473ffffffffffffffffffffffffffffffffffffffff1614610781576040517f08c379a00000000000000000000000000000000000000000000000000000000081526004016107789061175d565b60405180910390fd5b600073ffffffffffffffffffffffffffffffffffffffff168373ffffffffffffffffffffffffffffffffffffffff1614156107f1576040517f08c379a00000000000000000000000000000000000000000000000000000000081526004016107e89061177d565b60405180910390fd5b600073ffffffffffffffffffffffffffffffffffffffff166001600084815260200190815260200160002060009054906101000a900473ffffffffffffffffffffffffffffffffffffffff1673ffffffffffffffffffffffffffffffffffffffff161415610894576040517f08c379a000000000000000000000000000000000000000000000000000000000815260040161088b906117bd565b60405180910390fd5b61089f60008361050b565b60016000808673ffffffffffffffffffffffffffffffffffffffff1673ffffffffffffffffffffffffffffffffffffffff16815260200190815260200160002060008282546108ee91906118f1565b9250508190555060016000808573ffffffffffffffffffffffffffffffffffffffff1673ffffffffffffffffffffffffffffffffffffffff1681526020019081526020016000206000828254610944919061189b565b92505081905550806001600084815260200190815260200160002060006101000a81548173ffffffffffffffffffffffffffffffffffffffff021916908373ffffffffffffffffffffffffffffffffffffffff160217905550818373ffffffffffffffffffffffffffffffffffffffff168573ffffffffffffffffffffffffffffffffffffffff167fddf252ad1be2c89b69c2b068fc378daa952ba7f163c4a11628f55a4df523b3ef60405160405180910390a450505050565b610a1983838360405180602001604052806000815250610d7a565b505050565b6000806001600084815260200190815260200160002060009054906101000a900473ffffffffffffffffffffffffffffffffffffffff169050600073ffffffffffffffffffffffffffffffffffffffff168173ffffffffffffffffffffffffffffffffffffffff161415610ac7576040517f08c379a0000000000000000000000000000000000000000000000000000000008152600401610abe906116dd565b60405180910390fd5b80915050919050565b60008073ffffffffffffffffffffffffffffffffffffffff168273ffffffffffffffffffffffffffffffffffffffff161415610b41576040517f08c379a0000000000000000000000000000000000000000000000000000000008152600401610b389061179d565b60405180910390fd5b6000808373ffffffffffffffffffffffffffffffffffffffff1673ffffffffffffffffffffffffffffffffffffffff168152602001908152602001600020549050919050565b60006380ac58cd60e01b827bffffffffffffffffffffffffffffffffffffffffffffffffffffffff19161480610be25750635b5e139f60e01b827bffffffffffffffffffffffffffffffffffffffffffffffffffffffff1916145b9050919050565b60058054610bf6906119db565b80601f0160208091040260200160405190810160405280929190818152602001828054610c22906119db565b8015610c6f5780601f10610c4457610100808354040283529160200191610c6f565b820191906000526020600020905b815481529060010190602001808311610c5257829003601f168201915b505050505081565b60075481565b80600260003373ffffffffffffffffffffffffffffffffffffffff1673ffffffffffffffffffffffffffffffffffffffff16815260200190815260200160002060008473ffffffffffffffffffffffffffffffffffffffff1673ffffffffffffffffffffffffffffffffffffffff16815260200190815260200160002060006101000a81548160ff0219169083151502179055508173ffffffffffffffffffffffffffffffffffffffff163373ffffffffffffffffffffffffffffffffffffffff167f17307eab39ab6107e8899845ad3d59bd9653f200f220920489ca2b5937696c3183604051610d6e91906116a0565b60405180910390a35050565b610d85848484610649565b610d8d6110fd565b610dcc576040517f08c379a0000000000000000000000000000000000000000000000000000000008152600401610dc39061173d565b60405180910390fd5b50505050565b6060600073ffffffffffffffffffffffffffffffffffffffff166001600084815260200190815260200160002060009054906101000a900473ffffffffffffffffffffffffffffffffffffffff1673ffffffffffffffffffffffffffffffffffffffff161415610e77576040517f08c379a0000000000000000000000000000000000000000000000000000000008152600401610e6e906116fd565b60405180910390fd5b600660008381526020019081526020016000208054610e95906119db565b80601f0160208091040260200160405190810160405280929190818152602001828054610ec1906119db565b8015610f0e5780601f10610ee357610100808354040283529160200191610f0e565b820191906000526020600020905b815481529060010190602001808311610ef157829003601f168201915b50505050509050919050565b600160076000828254610f2d919061189b565b9250508190555060016000803373ffffffffffffffffffffffffffffffffffffffff1673ffffffffffffffffffffffffffffffffffffffff1681526020019081526020016000206000828254610f83919061189b565b925050819055503360016000600754815260200190815260200160002060006101000a81548173ffffffffffffffffffffffffffffffffffffffff021916908373ffffffffffffffffffffffffffffffffffffffff160217905550806006600060075481526020019081526020016000209080519060200190611007929190611106565b506007543373ffffffffffffffffffffffffffffffffffffffff16600073ffffffffffffffffffffffffffffffffffffffff167fddf252ad1be2c89b69c2b068fc378daa952ba7f163c4a11628f55a4df523b3ef60405160405180910390a450565b6000600260008473ffffffffffffffffffffffffffffffffffffffff1673ffffffffffffffffffffffffffffffffffffffff16815260200190815260200160002060008373ffffffffffffffffffffffffffffffffffffffff1673ffffffffffffffffffffffffffffffffffffffff16815260200190815260200160002060009054906101000a900460ff16905092915050565b60006001905090565b828054611112906119db565b90600052602060002090601f016020900481019282611134576000855561117b565b82601f1061114d57805160ff191683800117855561117b565b8280016001018555821561117b579182015b8281111561117a57825182559160200191906001019061115f565b5b509050611188919061118c565b5090565b5b808211156111a557600081600090555060010161118d565b5090565b60006111bc6111b78461181d565b6117f8565b9050828152602081018484840111156111d457600080fd5b6111df848285611999565b509392505050565b60006111fa6111f58461184e565b6117f8565b90508281526020810184848401111561121257600080fd5b61121d848285611999565b509392505050565b60008135905061123481611c4a565b92915050565b60008135905061124981611c61565b92915050565b60008135905061125e81611c78565b92915050565b600082601f83011261127557600080fd5b81356112858482602086016111a9565b91505092915050565b600082601f83011261129f57600080fd5b81356112af8482602086016111e7565b91505092915050565b6000813590506112c781611c8f565b92915050565b6000602082840312156112df57600080fd5b60006112ed84828501611225565b91505092915050565b6000806040838503121561130957600080fd5b600061131785828601611225565b925050602061132885828601611225565b9150509250929050565b60008060006060848603121561134757600080fd5b600061135586828701611225565b935050602061136686828701611225565b9250506040611377868287016112b8565b9150509250925092565b6000806000806080858703121561139757600080fd5b60006113a587828801611225565b94505060206113b687828801611225565b93505060406113c7878288016112b8565b925050606085013567ffffffffffffffff8111156113e457600080fd5b6113f087828801611264565b91505092959194509250565b6000806040838503121561140f57600080fd5b600061141d85828601611225565b925050602061142e8582860161123a565b9150509250929050565b6000806040838503121561144b57600080fd5b600061145985828601611225565b925050602061146a858286016112b8565b9150509250929050565b60006020828403121561148657600080fd5b60006114948482850161124f565b91505092915050565b6000602082840312156114af57600080fd5b600082013567ffffffffffffffff8111156114c957600080fd5b6114d58482850161128e565b91505092915050565b6000602082840312156114f057600080fd5b60006114fe848285016112b8565b91505092915050565b61151081611925565b82525050565b61151f81611937565b82525050565b60006115308261187f565b61153a818561188a565b935061154a8185602086016119a8565b61155381611acb565b840191505092915050565b600061156b60188361188a565b915061157682611adc565b602082019050919050565b600061158e60178361188a565b915061159982611b05565b602082019050919050565b60006115b160338361188a565b91506115bc82611b2e565b604082019050919050565b60006115d4601a8361188a565b91506115df82611b7d565b602082019050919050565b60006115f7601d8361188a565b915061160282611ba6565b602082019050919050565b600061161a601b8361188a565b915061162582611bcf565b602082019050919050565b600061163d600f8361188a565b915061164882611bf8565b602082019050919050565b600061166060178361188a565b915061166b82611c21565b602082019050919050565b61167f8161198f565b82525050565b600060208201905061169a6000830184611507565b92915050565b60006020820190506116b56000830184611516565b92915050565b600060208201905081810360008301526116d58184611525565b905092915050565b600060208201905081810360008301526116f68161155e565b9050919050565b6000602082019050818103600083015261171681611581565b9050919050565b60006020820190508181036000830152611736816115a4565b9050919050565b60006020820190508181036000830152611756816115c7565b9050919050565b60006020820190508181036000830152611776816115ea565b9050919050565b600060208201905081810360008301526117968161160d565b9050919050565b600060208201905081810360008301526117b681611630565b9050919050565b600060208201905081810360008301526117d681611653565b9050919050565b60006020820190506117f26000830184611676565b92915050565b6000611802611813565b905061180e8282611a0d565b919050565b6000604051905090565b600067ffffffffffffffff82111561183857611837611a9c565b5b61184182611acb565b9050602081019050919050565b600067ffffffffffffffff82111561186957611868611a9c565b5b61187282611acb565b9050602081019050919050565b600081519050919050565b600082825260208201905092915050565b60006118a68261198f565b91506118b18361198f565b9250827fffffffffffffffffffffffffffffffffffffffffffffffffffffffffffffffff038211156118e6576118e5611a3e565b5b828201905092915050565b60006118fc8261198f565b91506119078361198f565b92508282101561191a57611919611a3e565b5b828203905092915050565b60006119308261196f565b9050919050565b60008115159050919050565b60007fffffffff0000000000000000000000000000000000000000000000000000000082169050919050565b600073ffffffffffffffffffffffffffffffffffffffff82169050919050565b6000819050919050565b82818337600083830152505050565b60005b838110156119c65780820151818401526020810190506119ab565b838111156119d5576000848401525b50505050565b600060028204905060018216806119f357607f821691505b60208210811415611a0757611a06611a6d565b5b50919050565b611a1682611acb565b810181811067ffffffffffffffff82111715611a3557611a34611a9c565b5b80604052505050565b7f4e487b7100000000000000000000000000000000000000000000000000000000600052601160045260246000fd5b7f4e487b7100000000000000000000000000000000000000000000000000000000600052602260045260246000fd5b7f4e487b7100000000000000000000000000000000000000000000000000000000600052604160045260246000fd5b6000601f19601f8301169050919050565b7f546f6b656e20494420646f6573206e6f74206578697473740000000000000000600082015250565b7f746f6b656e20494420646f6573206e6f74206578697374000000000000000000600082015250565b7f736d672e73656e646572206973206e6f7420746865206f776e6572206f72207460008201527f686520617070726f766564206f706572746f7200000000000000000000000000602082015250565b7f52656365697074206973206e6f7420696d706c656d656e746564000000000000600082015250565b7f66726f6d2061646472657373206973206e6f7420746865206f776e6572000000600082015250565b7f6164647265737320697320746865207a65726f20616464726573730000000000600082015250565b7f41646472657373206973207a61726f0000000000000000000000000000000000600082015250565b7f746f6b656e20494420646f7365206e6f74206578697374000000000000000000600082015250565b611c5381611925565b8114611c5e57600080fd5b50565b611c6a81611937565b8114611c7557600080fd5b50565b611c8181611943565b8114611c8c57600080fd5b50565b611c988161198f565b8114611ca357600080fd5b5056fea2646970667358221220993a6df6a55073227054d4e56a47e12d05f0500fcef9b6306a0e07803eb6b36664736f6c63430008020033",
  "linkReferences": {},
  "deployedLinkReferences": {}
}