{
  "_format": "hh-sol-artifact-1",
  "contractName": "ERC721",
  "sourceName": "contracts/ERC721.sol",
  "abi": [
    {
      "anonymous": false,
      "inputs": [
        {
          "indexed": true,
          "internalType": "address",
          "name": "_owner",
          "type": "address"
        },
        {
          "indexed": true,
          "internalType": "address",
          "name": "_approved",
          "type": "address"
        },
        {
          "indexed": true,
          "internalType": "uint256",
          "name": "_tokenId",
          "type": "uint256"
        }
      ],
      "name": "Approval",
      "type": "event"
    },
    {
      "anonymous": false,
      "inputs": [
        {
          "indexed": true,
          "internalType": "address",
          "name": "_owner",
          "type": "address"
        },
        {
          "indexed": true,
          "internalType": "address",
          "name": "_operator",
          "type": "address"
        },
        {
          "indexed": false,
          "internalType": "bool",
          "name": "_approved",
          "type": "bool"
        }
      ],
      "name": "ApprovalForAll",
      "type": "event"
    },
    {
      "anonymous": false,
      "inputs": [
        {
          "indexed": true,
          "internalType": "address",
          "name": "_from",
          "type": "address"
        },
        {
          "indexed": true,
          "internalType": "address",
          "name": "_to",
          "type": "address"
        },
        {
          "indexed": true,
          "internalType": "uint256",
          "name": "_tokenId",
          "type": "uint256"
        }
      ],
      "name": "Transfer",
      "type": "event"
    },
    {
      "inputs": [
        {
          "internalType": "address",
          "name": "approved",
          "type": "address"
        },
        {
          "internalType": "uint256",
          "name": "tokenId",
          "type": "uint256"
        }
      ],
      "name": "approve",
      "outputs": [],
      "stateMutability": "payable",
      "type": "function"
    },
    {
      "inputs": [
        {
          "internalType": "address",
          "name": "owner",
          "type": "address"
        }
      ],
      "name": "balanceOf",
      "outputs": [
        {
          "internalType": "uint256",
          "name": "",
          "type": "uint256"
        }
      ],
      "stateMutability": "view",
      "type": "function"
    },
    {
      "inputs": [
        {
          "internalType": "uint256",
          "name": "tokenId",
          "type": "uint256"
        }
      ],
      "name": "getApproved",
      "outputs": [
        {
          "internalType": "address",
          "name": "",
          "type": "address"
        }
      ],
      "stateMutability": "view",
      "type": "function"
    },
    {
      "inputs": [
        {
          "internalType": "address",
          "name": "owner",
          "type": "address"
        },
        {
          "internalType": "address",
          "name": "operator",
          "type": "address"
        }
      ],
      "name": "isApprovedForAll",
      "outputs": [
        {
          "internalType": "bool",
          "name": "",
          "type": "bool"
        }
      ],
      "stateMutability": "view",
      "type": "function"
    },
    {
      "inputs": [
        {
          "internalType": "uint256",
          "name": "tokenId",
          "type": "uint256"
        }
      ],
      "name": "ownerOf",
      "outputs": [
        {
          "internalType": "address",
          "name": "",
          "type": "address"
        }
      ],
      "stateMutability": "view",
      "type": "function"
    },
    {
      "inputs": [
        {
          "internalType": "address",
          "name": "from",
          "type": "address"
        },
        {
          "internalType": "address",
          "name": "to",
          "type": "address"
        },
        {
          "internalType": "uint256",
          "name": "tokenId",
          "type": "uint256"
        }
      ],
      "name": "safeTransferFrom",
      "outputs": [],
      "stateMutability": "payable",
      "type": "function"
    },
    {
      "inputs": [
        {
          "internalType": "address",
          "name": "from",
          "type": "address"
        },
        {
          "internalType": "address",
          "name": "to",
          "type": "address"
        },
        {
          "internalType": "uint256",
          "name": "tokenId",
          "type": "uint256"
        },
        {
          "internalType": "bytes",
          "name": "_data",
          "type": "bytes"
        }
      ],
      "name": "safeTransferFrom",
      "outputs": [],
      "stateMutability": "payable",
      "type": "function"
    },
    {
      "inputs": [
        {
          "internalType": "address",
          "name": "operator",
          "type": "address"
        },
        {
          "internalType": "bool",
          "name": "approved",
          "type": "bool"
        }
      ],
      "name": "setApprovalForAll",
      "outputs": [],
      "stateMutability": "nonpayable",
      "type": "function"
    },
    {
      "inputs": [
        {
          "internalType": "bytes4",
          "name": "interfaceID",
          "type": "bytes4"
        }
      ],
      "name": "supportInterface",
      "outputs": [
        {
          "internalType": "bool",
          "name": "",
          "type": "bool"
        }
      ],
      "stateMutability": "pure",
      "type": "function"
    },
    {
      "inputs": [
        {
          "internalType": "address",
          "name": "from",
          "type": "address"
        },
        {
          "internalType": "address",
          "name": "to",
          "type": "address"
        },
        {
          "internalType": "uint256",
          "name": "tokenId",
          "type": "uint256"
        }
      ],
      "name": "transferFrom",
      "outputs": [],
      "stateMutability": "payable",
      "type": "function"
    }
  ],
  "bytecode": "0x608060405234801561001057600080fd5b5061153e806100206000396000f3fe6080604052600436106100915760003560e01c806370a082311161005957806370a082311461016457806375e79be6146101a1578063a22cb465146101de578063b88d4fde14610207578063e985e9c51461022357610091565b8063081812fc14610096578063095ea7b3146100d357806323b872dd146100ef57806342842e0e1461010b5780636352211e14610127575b600080fd5b3480156100a257600080fd5b506100bd60048036038101906100b89190610e6b565b610260565b6040516100ca9190610fd9565b60405180910390f35b6100ed60048036038101906100e89190610e06565b61033f565b005b61010960048036038101906101049190610d00565b61047d565b005b61012560048036038101906101209190610d00565b610832565b005b34801561013357600080fd5b5061014e60048036038101906101499190610e6b565b610852565b60405161015b9190610fd9565b60405180910390f35b34801561017057600080fd5b5061018b60048036038101906101869190610c9b565b610904565b604051610198919061110f565b60405180910390f35b3480156101ad57600080fd5b506101c860048036038101906101c39190610e42565b6109bb565b6040516101d59190610ff4565b60405180910390f35b3480156101ea57600080fd5b5061020560048036038101906102009190610dca565b6109ed565b005b610221600480360381019061021c9190610d4f565b610aea565b005b34801561022f57600080fd5b5061024a60048036038101906102459190610cc4565b610b42565b6040516102579190610ff4565b60405180910390f35b60008073ffffffffffffffffffffffffffffffffffffffff166001600084815260200190815260200160002060009054906101000a900473ffffffffffffffffffffffffffffffffffffffff1673ffffffffffffffffffffffffffffffffffffffff161415610304576040517f08c379a00000000000000000000000000000000000000000000000000000000081526004016102fb9061102f565b60405180910390fd5b6003600083815260200190815260200160002060009054906101000a900473ffffffffffffffffffffffffffffffffffffffff169050919050565b600061034a82610852565b90508073ffffffffffffffffffffffffffffffffffffffff163373ffffffffffffffffffffffffffffffffffffffff16148061038c575061038b8133610b42565b5b6103cb576040517f08c379a00000000000000000000000000000000000000000000000000000000081526004016103c29061104f565b60405180910390fd5b826003600084815260200190815260200160002060006101000a81548173ffffffffffffffffffffffffffffffffffffffff021916908373ffffffffffffffffffffffffffffffffffffffff160217905550818373ffffffffffffffffffffffffffffffffffffffff168273ffffffffffffffffffffffffffffffffffffffff167f8c5be1e5ebec7d5bd14f71427d1e84f3dd0314c0f7b2291e5b200ac8c7c3b92560405160405180910390a4505050565b600061048882610852565b90508073ffffffffffffffffffffffffffffffffffffffff163373ffffffffffffffffffffffffffffffffffffffff1614806104ca57506104c98133610b42565b5b8061050857503373ffffffffffffffffffffffffffffffffffffffff166104f083610260565b73ffffffffffffffffffffffffffffffffffffffff16145b610547576040517f08c379a000000000000000000000000000000000000000000000000000000000815260040161053e9061104f565b60405180910390fd5b3373ffffffffffffffffffffffffffffffffffffffff168473ffffffffffffffffffffffffffffffffffffffff16146105b5576040517f08c379a00000000000000000000000000000000000000000000000000000000081526004016105ac9061108f565b60405180910390fd5b600073ffffffffffffffffffffffffffffffffffffffff168373ffffffffffffffffffffffffffffffffffffffff161415610625576040517f08c379a000000000000000000000000000000000000000000000000000000000815260040161061c906110af565b60405180910390fd5b600073ffffffffffffffffffffffffffffffffffffffff166001600084815260200190815260200160002060009054906101000a900473ffffffffffffffffffffffffffffffffffffffff1673ffffffffffffffffffffffffffffffffffffffff1614156106c8576040517f08c379a00000000000000000000000000000000000000000000000000000000081526004016106bf906110ef565b60405180910390fd5b6106d360008361033f565b60016000808673ffffffffffffffffffffffffffffffffffffffff1673ffffffffffffffffffffffffffffffffffffffff168152602001908152602001600020600082825461072291906111e7565b9250508190555060016000808573ffffffffffffffffffffffffffffffffffffffff1673ffffffffffffffffffffffffffffffffffffffff16815260200190815260200160002060008282546107789190611191565b92505081905550806001600084815260200190815260200160002060006101000a81548173ffffffffffffffffffffffffffffffffffffffff021916908373ffffffffffffffffffffffffffffffffffffffff160217905550818373ffffffffffffffffffffffffffffffffffffffff168573ffffffffffffffffffffffffffffffffffffffff167fddf252ad1be2c89b69c2b068fc378daa952ba7f163c4a11628f55a4df523b3ef60405160405180910390a450505050565b61084d83838360405180602001604052806000815250610aea565b505050565b6000806001600084815260200190815260200160002060009054906101000a900473ffffffffffffffffffffffffffffffffffffffff169050600073ffffffffffffffffffffffffffffffffffffffff168173ffffffffffffffffffffffffffffffffffffffff1614156108fb576040517f08c379a00000000000000000000000000000000000000000000000000000000081526004016108f29061100f565b60405180910390fd5b80915050919050565b60008073ffffffffffffffffffffffffffffffffffffffff168273ffffffffffffffffffffffffffffffffffffffff161415610975576040517f08c379a000000000000000000000000000000000000000000000000000000000815260040161096c906110cf565b60405180910390fd5b6000808373ffffffffffffffffffffffffffffffffffffffff1673ffffffffffffffffffffffffffffffffffffffff168152602001908152602001600020549050919050565b60006380ac58cd60e01b827bffffffffffffffffffffffffffffffffffffffffffffffffffffffff1916149050919050565b80600260003373ffffffffffffffffffffffffffffffffffffffff1673ffffffffffffffffffffffffffffffffffffffff16815260200190815260200160002060008473ffffffffffffffffffffffffffffffffffffffff1673ffffffffffffffffffffffffffffffffffffffff16815260200190815260200160002060006101000a81548160ff0219169083151502179055508173ffffffffffffffffffffffffffffffffffffffff163373ffffffffffffffffffffffffffffffffffffffff167f17307eab39ab6107e8899845ad3d59bd9653f200f220920489ca2b5937696c3183604051610ade9190610ff4565b60405180910390a35050565b610af584848461047d565b610afd610bd6565b610b3c576040517f08c379a0000000000000000000000000000000000000000000000000000000008152600401610b339061106f565b60405180910390fd5b50505050565b6000600260008473ffffffffffffffffffffffffffffffffffffffff1673ffffffffffffffffffffffffffffffffffffffff16815260200190815260200160002060008373ffffffffffffffffffffffffffffffffffffffff1673ffffffffffffffffffffffffffffffffffffffff16815260200190815260200160002060009054906101000a900460ff16905092915050565b60006001905090565b6000610bf2610bed8461114f565b61112a565b905082815260208101848484011115610c0a57600080fd5b610c1584828561128f565b509392505050565b600081359050610c2c816114ac565b92915050565b600081359050610c41816114c3565b92915050565b600081359050610c56816114da565b92915050565b600082601f830112610c6d57600080fd5b8135610c7d848260208601610bdf565b91505092915050565b600081359050610c95816114f1565b92915050565b600060208284031215610cad57600080fd5b6000610cbb84828501610c1d565b91505092915050565b60008060408385031215610cd757600080fd5b6000610ce585828601610c1d565b9250506020610cf685828601610c1d565b9150509250929050565b600080600060608486031215610d1557600080fd5b6000610d2386828701610c1d565b9350506020610d3486828701610c1d565b9250506040610d4586828701610c86565b9150509250925092565b60008060008060808587031215610d6557600080fd5b6000610d7387828801610c1d565b9450506020610d8487828801610c1d565b9350506040610d9587828801610c86565b925050606085013567ffffffffffffffff811115610db257600080fd5b610dbe87828801610c5c565b91505092959194509250565b60008060408385031215610ddd57600080fd5b6000610deb85828601610c1d565b9250506020610dfc85828601610c32565b9150509250929050565b60008060408385031215610e1957600080fd5b6000610e2785828601610c1d565b9250506020610e3885828601610c86565b9150509250929050565b600060208284031215610e5457600080fd5b6000610e6284828501610c47565b91505092915050565b600060208284031215610e7d57600080fd5b6000610e8b84828501610c86565b91505092915050565b610e9d8161121b565b82525050565b610eac8161122d565b82525050565b6000610ebf601883611180565b9150610eca8261133e565b602082019050919050565b6000610ee2601783611180565b9150610eed82611367565b602082019050919050565b6000610f05603383611180565b9150610f1082611390565b604082019050919050565b6000610f28601a83611180565b9150610f33826113df565b602082019050919050565b6000610f4b601d83611180565b9150610f5682611408565b602082019050919050565b6000610f6e601b83611180565b9150610f7982611431565b602082019050919050565b6000610f91600f83611180565b9150610f9c8261145a565b602082019050919050565b6000610fb4601783611180565b9150610fbf82611483565b602082019050919050565b610fd381611285565b82525050565b6000602082019050610fee6000830184610e94565b92915050565b60006020820190506110096000830184610ea3565b92915050565b6000602082019050818103600083015261102881610eb2565b9050919050565b6000602082019050818103600083015261104881610ed5565b9050919050565b6000602082019050818103600083015261106881610ef8565b9050919050565b6000602082019050818103600083015261108881610f1b565b9050919050565b600060208201905081810360008301526110a881610f3e565b9050919050565b600060208201905081810360008301526110c881610f61565b9050919050565b600060208201905081810360008301526110e881610f84565b9050919050565b6000602082019050818103600083015261110881610fa7565b9050919050565b60006020820190506111246000830184610fca565b92915050565b6000611134611145565b9050611140828261129e565b919050565b6000604051905090565b600067ffffffffffffffff82111561116a576111696112fe565b5b6111738261132d565b9050602081019050919050565b600082825260208201905092915050565b600061119c82611285565b91506111a783611285565b9250827fffffffffffffffffffffffffffffffffffffffffffffffffffffffffffffffff038211156111dc576111db6112cf565b5b828201905092915050565b60006111f282611285565b91506111fd83611285565b9250828210156112105761120f6112cf565b5b828203905092915050565b600061122682611265565b9050919050565b60008115159050919050565b60007fffffffff0000000000000000000000000000000000000000000000000000000082169050919050565b600073ffffffffffffffffffffffffffffffffffffffff82169050919050565b6000819050919050565b82818337600083830152505050565b6112a78261132d565b810181811067ffffffffffffffff821117156112c6576112c56112fe565b5b80604052505050565b7f4e487b7100000000000000000000000000000000000000000000000000000000600052601160045260246000fd5b7f4e487b7100000000000000000000000000000000000000000000000000000000600052604160045260246000fd5b6000601f19601f8301169050919050565b7f546f6b656e20494420646f6573206e6f74206578697473740000000000000000600082015250565b7f746f6b656e20494420646f6573206e6f74206578697374000000000000000000600082015250565b7f736d672e73656e646572206973206e6f7420746865206f776e6572206f72207460008201527f686520617070726f766564206f706572746f7200000000000000000000000000602082015250565b7f52656365697074206973206e6f7420696d706c656d656e746564000000000000600082015250565b7f66726f6d2061646472657373206973206e6f7420746865206f776e6572000000600082015250565b7f6164647265737320697320746865207a65726f20616464726573730000000000600082015250565b7f41646472657373206973207a61726f0000000000000000000000000000000000600082015250565b7f746f6b656e20494420646f7365206e6f74206578697374000000000000000000600082015250565b6114b58161121b565b81146114c057600080fd5b50565b6114cc8161122d565b81146114d757600080fd5b50565b6114e381611239565b81146114ee57600080fd5b50565b6114fa81611285565b811461150557600080fd5b5056fea26469706673582212209690c37b2f3ecfa180c2592bb8a15bc03cdd84d168e2bdf6173ea32de70b34ac64736f6c63430008020033",
  "linkReferences": {},
  "deployedLinkReferences": {}
}